{
  "_format": "hh-sol-artifact-1",
  "contractName": "Soulbonus",
  "sourceName": "contracts/Soulbonus.sol",
  "abi": [
    {
      "inputs": [
        {
          "internalType": "string",
          "name": "_name",
          "type": "string"
        },
        {
          "internalType": "uint256",
          "name": "_basicToConvert",
          "type": "uint256"
        },
        {
          "internalType": "string",
          "name": "_basicTokenUri",
          "type": "string"
        },
        {
          "internalType": "string",
          "name": "_superTokenUri",
          "type": "string"
        }
      ],
      "stateMutability": "nonpayable",
      "type": "constructor"
    },
    {
      "anonymous": false,
      "inputs": [
        {
          "indexed": true,
          "internalType": "address",
          "name": "account",
          "type": "address"
        },
        {
          "indexed": true,
          "internalType": "address",
          "name": "operator",
          "type": "address"
        },
        {
          "indexed": false,
          "internalType": "bool",
          "name": "approved",
          "type": "bool"
        }
      ],
      "name": "ApprovalForAll",
      "type": "event"
    },
    {
      "anonymous": false,
      "inputs": [
        {
          "indexed": true,
          "internalType": "address",
          "name": "to",
          "type": "address"
        }
      ],
      "name": "BasicTokenMinted",
      "type": "event"
    },
    {
      "anonymous": false,
      "inputs": [
        {
          "indexed": true,
          "internalType": "address",
          "name": "previousOwner",
          "type": "address"
        },
        {
          "indexed": true,
          "internalType": "address",
          "name": "newOwner",
          "type": "address"
        }
      ],
      "name": "OwnershipTransferred",
      "type": "event"
    },
    {
      "anonymous": false,
      "inputs": [
        {
          "indexed": true,
          "internalType": "uint256",
          "name": "id",
          "type": "uint256"
        },
        {
          "indexed": false,
          "internalType": "bool",
          "name": "bounded",
          "type": "bool"
        }
      ],
      "name": "Soulbound",
      "type": "event"
    },
    {
      "anonymous": false,
      "inputs": [
        {
          "indexed": true,
          "internalType": "address",
          "name": "from",
          "type": "address"
        }
      ],
      "name": "SuperTokenBurned",
      "type": "event"
    },
    {
      "anonymous": false,
      "inputs": [
        {
          "indexed": true,
          "internalType": "address",
          "name": "to",
          "type": "address"
        }
      ],
      "name": "TokensUpgraded",
      "type": "event"
    },
    {
      "anonymous": false,
      "inputs": [
        {
          "indexed": true,
          "internalType": "address",
          "name": "operator",
          "type": "address"
        },
        {
          "indexed": true,
          "internalType": "address",
          "name": "from",
          "type": "address"
        },
        {
          "indexed": true,
          "internalType": "address",
          "name": "to",
          "type": "address"
        },
        {
          "indexed": false,
          "internalType": "uint256[]",
          "name": "ids",
          "type": "uint256[]"
        },
        {
          "indexed": false,
          "internalType": "uint256[]",
          "name": "values",
          "type": "uint256[]"
        }
      ],
      "name": "TransferBatch",
      "type": "event"
    },
    {
      "anonymous": false,
      "inputs": [
        {
          "indexed": true,
          "internalType": "address",
          "name": "operator",
          "type": "address"
        },
        {
          "indexed": true,
          "internalType": "address",
          "name": "from",
          "type": "address"
        },
        {
          "indexed": true,
          "internalType": "address",
          "name": "to",
          "type": "address"
        },
        {
          "indexed": false,
          "internalType": "uint256",
          "name": "id",
          "type": "uint256"
        },
        {
          "indexed": false,
          "internalType": "uint256",
          "name": "value",
          "type": "uint256"
        }
      ],
      "name": "TransferSingle",
      "type": "event"
    },
    {
      "anonymous": false,
      "inputs": [
        {
          "indexed": false,
          "internalType": "string",
          "name": "value",
          "type": "string"
        },
        {
          "indexed": true,
          "internalType": "uint256",
          "name": "id",
          "type": "uint256"
        }
      ],
      "name": "URI",
      "type": "event"
    },
    {
      "inputs": [
        {
          "internalType": "uint256",
          "name": "tokenId",
          "type": "uint256"
        },
        {
          "internalType": "string",
          "name": "tokenURI",
          "type": "string"
        }
      ],
      "name": "_setTokenUri",
      "outputs": [],
      "stateMutability": "nonpayable",
      "type": "function"
    },
    {
      "inputs": [
        {
          "internalType": "address",
          "name": "account",
          "type": "address"
        },
        {
          "internalType": "uint256",
          "name": "id",
          "type": "uint256"
        }
      ],
      "name": "balanceOf",
      "outputs": [
        {
          "internalType": "uint256",
          "name": "",
          "type": "uint256"
        }
      ],
      "stateMutability": "view",
      "type": "function"
    },
    {
      "inputs": [
        {
          "internalType": "address[]",
          "name": "accounts",
          "type": "address[]"
        },
        {
          "internalType": "uint256[]",
          "name": "ids",
          "type": "uint256[]"
        }
      ],
      "name": "balanceOfBatch",
      "outputs": [
        {
          "internalType": "uint256[]",
          "name": "",
          "type": "uint256[]"
        }
      ],
      "stateMutability": "view",
      "type": "function"
    },
    {
      "inputs": [],
      "name": "basicToConvert",
      "outputs": [
        {
          "internalType": "uint256",
          "name": "",
          "type": "uint256"
        }
      ],
      "stateMutability": "view",
      "type": "function"
    },
    {
      "inputs": [
        {
          "internalType": "address",
          "name": "from",
          "type": "address"
        }
      ],
      "name": "burnSuperToken",
      "outputs": [],
      "stateMutability": "nonpayable",
      "type": "function"
    },
    {
      "inputs": [],
      "name": "getInterfaceId",
      "outputs": [
        {
          "internalType": "bytes4",
          "name": "",
          "type": "bytes4"
        }
      ],
      "stateMutability": "pure",
      "type": "function"
    },
    {
      "inputs": [
        {
          "internalType": "address",
          "name": "user",
          "type": "address"
        }
      ],
      "name": "getUserBalanceBasic",
      "outputs": [
        {
          "internalType": "uint256",
          "name": "",
          "type": "uint256"
        }
      ],
      "stateMutability": "view",
      "type": "function"
    },
    {
      "inputs": [
        {
          "internalType": "address",
          "name": "user",
          "type": "address"
        }
      ],
      "name": "getUserBalanceSuper",
      "outputs": [
        {
          "internalType": "uint256",
          "name": "",
          "type": "uint256"
        }
      ],
      "stateMutability": "view",
      "type": "function"
    },
    {
      "inputs": [
        {
          "internalType": "address",
          "name": "account",
          "type": "address"
        },
        {
          "internalType": "address",
          "name": "operator",
          "type": "address"
        }
      ],
      "name": "isApprovedForAll",
      "outputs": [
        {
          "internalType": "bool",
          "name": "",
          "type": "bool"
        }
      ],
      "stateMutability": "view",
      "type": "function"
    },
    {
      "inputs": [
        {
          "internalType": "uint256",
          "name": "id",
          "type": "uint256"
        }
      ],
      "name": "isSoulbound",
      "outputs": [
        {
          "internalType": "bool",
          "name": "",
          "type": "bool"
        }
      ],
      "stateMutability": "view",
      "type": "function"
    },
    {
      "inputs": [
        {
          "internalType": "address",
          "name": "account",
          "type": "address"
        },
        {
          "internalType": "uint256",
          "name": "id",
          "type": "uint256"
        },
        {
          "internalType": "uint256",
          "name": "amount",
          "type": "uint256"
        },
        {
          "internalType": "bytes",
          "name": "data",
          "type": "bytes"
        }
      ],
      "name": "mint",
      "outputs": [],
      "stateMutability": "nonpayable",
      "type": "function"
    },
    {
      "inputs": [
        {
          "internalType": "address",
          "name": "to",
          "type": "address"
        }
      ],
      "name": "mintBasicToken",
      "outputs": [],
      "stateMutability": "nonpayable",
      "type": "function"
    },
    {
      "inputs": [
        {
          "internalType": "address",
          "name": "to",
          "type": "address"
        },
        {
          "internalType": "uint256[]",
          "name": "ids",
          "type": "uint256[]"
        },
        {
          "internalType": "uint256[]",
          "name": "amounts",
          "type": "uint256[]"
        },
        {
          "internalType": "bytes",
          "name": "data",
          "type": "bytes"
        }
      ],
      "name": "mintBatch",
      "outputs": [],
      "stateMutability": "nonpayable",
      "type": "function"
    },
    {
      "inputs": [],
      "name": "name",
      "outputs": [
        {
          "internalType": "string",
          "name": "",
          "type": "string"
        }
      ],
      "stateMutability": "view",
      "type": "function"
    },
    {
      "inputs": [],
      "name": "owner",
      "outputs": [
        {
          "internalType": "address",
          "name": "",
          "type": "address"
        }
      ],
      "stateMutability": "view",
      "type": "function"
    },
    {
      "inputs": [],
      "name": "renounceOwnership",
      "outputs": [],
      "stateMutability": "nonpayable",
      "type": "function"
    },
    {
      "inputs": [
        {
          "internalType": "address",
          "name": "from",
          "type": "address"
        },
        {
          "internalType": "address",
          "name": "to",
          "type": "address"
        },
        {
          "internalType": "uint256[]",
          "name": "ids",
          "type": "uint256[]"
        },
        {
          "internalType": "uint256[]",
          "name": "amounts",
          "type": "uint256[]"
        },
        {
          "internalType": "bytes",
          "name": "data",
          "type": "bytes"
        }
      ],
      "name": "safeBatchTransferFrom",
      "outputs": [],
      "stateMutability": "nonpayable",
      "type": "function"
    },
    {
      "inputs": [
        {
          "internalType": "address",
          "name": "from",
          "type": "address"
        },
        {
          "internalType": "address",
          "name": "to",
          "type": "address"
        },
        {
          "internalType": "uint256",
          "name": "id",
          "type": "uint256"
        },
        {
          "internalType": "uint256",
          "name": "amount",
          "type": "uint256"
        },
        {
          "internalType": "bytes",
          "name": "data",
          "type": "bytes"
        }
      ],
      "name": "safeTransferFrom",
      "outputs": [],
      "stateMutability": "nonpayable",
      "type": "function"
    },
    {
      "inputs": [
        {
          "internalType": "address",
          "name": "operator",
          "type": "address"
        },
        {
          "internalType": "bool",
          "name": "approved",
          "type": "bool"
        }
      ],
      "name": "setApprovalForAll",
      "outputs": [],
      "stateMutability": "nonpayable",
      "type": "function"
    },
    {
      "inputs": [
        {
          "internalType": "string",
          "name": "newName",
          "type": "string"
        }
      ],
      "name": "setName",
      "outputs": [],
      "stateMutability": "nonpayable",
      "type": "function"
    },
    {
      "inputs": [
        {
          "internalType": "uint256",
          "name": "id",
          "type": "uint256"
        },
        {
          "internalType": "bool",
          "name": "soulbound",
          "type": "bool"
        }
      ],
      "name": "setSoulbound",
      "outputs": [],
      "stateMutability": "nonpayable",
      "type": "function"
    },
    {
      "inputs": [
        {
          "internalType": "bytes4",
          "name": "interfaceId",
          "type": "bytes4"
        }
      ],
      "name": "supportsInterface",
      "outputs": [
        {
          "internalType": "bool",
          "name": "",
          "type": "bool"
        }
      ],
      "stateMutability": "view",
      "type": "function"
    },
    {
      "inputs": [],
      "name": "totalBasic",
      "outputs": [
        {
          "internalType": "uint256",
          "name": "",
          "type": "uint256"
        }
      ],
      "stateMutability": "view",
      "type": "function"
    },
    {
      "inputs": [],
      "name": "totalSuper",
      "outputs": [
        {
          "internalType": "uint256",
          "name": "",
          "type": "uint256"
        }
      ],
      "stateMutability": "view",
      "type": "function"
    },
    {
      "inputs": [
        {
          "internalType": "address",
          "name": "newOwner",
          "type": "address"
        }
      ],
      "name": "transferOwnership",
      "outputs": [],
      "stateMutability": "nonpayable",
      "type": "function"
    },
    {
      "inputs": [
        {
          "internalType": "uint256",
          "name": "id",
          "type": "uint256"
        }
      ],
      "name": "uri",
      "outputs": [
        {
          "internalType": "string",
          "name": "",
          "type": "string"
        }
      ],
      "stateMutability": "view",
      "type": "function"
    }
  ],
  "bytecode": "0x60a06040523480156200001157600080fd5b50604051620045ab380380620045ab8339818101604052810190620000379190620005c5565b604051806020016040528060008152506200005881620000f160201b60201c565b50620000796200006d6200010d60201b60201c565b6200011560201b60201c565b82608081815250508360079080519060200190620000999291906200033d565b50620000ae60006001620001db60201b60201c565b620000c1600180620001db60201b60201c565b620000d46000836200024460201b60201c565b620000e76001826200024460201b60201c565b50505050620007b6565b8060029080519060200190620001099291906200033d565b5050565b600033905090565b6000600360009054906101000a900473ffffffffffffffffffffffffffffffffffffffff16905081600360006101000a81548173ffffffffffffffffffffffffffffffffffffffff021916908373ffffffffffffffffffffffffffffffffffffffff1602179055508173ffffffffffffffffffffffffffffffffffffffff168173ffffffffffffffffffffffffffffffffffffffff167f8be0079c531659141344cd1fd0a4f28419497f9722a3daafe3b4186f6b6457e060405160405180910390a35050565b806004600084815260200190815260200160002060006101000a81548160ff021916908315150217905550817fe0abe9435049152fa612635eac4022235b6f5c156ecf799bdac41b11b9fa221182604051620002389190620006b1565b60405180910390a25050565b620002546200028260201b60201c565b806005600084815260200190815260200160002090805190602001906200027d9291906200033d565b505050565b620002926200010d60201b60201c565b73ffffffffffffffffffffffffffffffffffffffff16620002b86200031360201b60201c565b73ffffffffffffffffffffffffffffffffffffffff161462000311576040517f08c379a000000000000000000000000000000000000000000000000000000000815260040162000308906200072f565b60405180910390fd5b565b6000600360009054906101000a900473ffffffffffffffffffffffffffffffffffffffff16905090565b8280546200034b9062000780565b90600052602060002090601f0160209004810192826200036f5760008555620003bb565b82601f106200038a57805160ff1916838001178555620003bb565b82800160010185558215620003bb579182015b82811115620003ba5782518255916020019190600101906200039d565b5b509050620003ca9190620003ce565b5090565b5b80821115620003e9576000816000905550600101620003cf565b5090565b6000604051905090565b600080fd5b600080fd5b600080fd5b600080fd5b6000601f19601f8301169050919050565b7f4e487b7100000000000000000000000000000000000000000000000000000000600052604160045260246000fd5b62000456826200040b565b810181811067ffffffffffffffff821117156200047857620004776200041c565b5b80604052505050565b60006200048d620003ed565b90506200049b82826200044b565b919050565b600067ffffffffffffffff821115620004be57620004bd6200041c565b5b620004c9826200040b565b9050602081019050919050565b60005b83811015620004f6578082015181840152602081019050620004d9565b8381111562000506576000848401525b50505050565b6000620005236200051d84620004a0565b62000481565b90508281526020810184848401111562000542576200054162000406565b5b6200054f848285620004d6565b509392505050565b600082601f8301126200056f576200056e62000401565b5b8151620005818482602086016200050c565b91505092915050565b6000819050919050565b6200059f816200058a565b8114620005ab57600080fd5b50565b600081519050620005bf8162000594565b92915050565b60008060008060808587031215620005e257620005e1620003f7565b5b600085015167ffffffffffffffff811115620006035762000602620003fc565b5b620006118782880162000557565b94505060206200062487828801620005ae565b935050604085015167ffffffffffffffff811115620006485762000647620003fc565b5b620006568782880162000557565b925050606085015167ffffffffffffffff8111156200067a5762000679620003fc565b5b620006888782880162000557565b91505092959194509250565b60008115159050919050565b620006ab8162000694565b82525050565b6000602082019050620006c86000830184620006a0565b92915050565b600082825260208201905092915050565b7f4f776e61626c653a2063616c6c6572206973206e6f7420746865206f776e6572600082015250565b600062000717602083620006ce565b91506200072482620006df565b602082019050919050565b600060208201905081810360008301526200074a8162000708565b9050919050565b7f4e487b7100000000000000000000000000000000000000000000000000000000600052602260045260246000fd5b600060028204905060018216806200079957607f821691505b60208210811415620007b057620007af62000751565b5b50919050565b608051613dcb620007e060003960008181610a1601528181610a4d0152610c300152613dcb6000f3fe608060405234801561001057600080fd5b506004361061018d5760003560e01c80636b9241fc116100de578063966d964b11610097578063c47f002711610071578063c47f002714610480578063e985e9c51461049c578063f242432a146104cc578063f2fde38b146104e85761018d565b8063966d964b1461042a578063a22cb46514610446578063bc27299a146104625761018d565b80636b9241fc1461037c578063715018a61461039a578063731133e9146103a457806387c5a33e146103c05780638da5cb5b146103dc578063911ec470146103fa5761018d565b80631f2a612b1161014b5780632eb2c2d6116101255780632eb2c2d6146102f85780633086719a146103145780634e1273f4146103305780636b0863f0146103605761018d565b80631f2a612b1461028e5780631f7fdffa146102ac5780632cb7c24f146102c85761018d565b8062fdd58e1461019257806301ffc9a7146101c257806306fdde03146101f25780630a892adb146102105780630e89341c1461024057806315b60c3314610270575b600080fd5b6101ac60048036038101906101a791906125d5565b610504565b6040516101b99190612624565b60405180910390f35b6101dc60048036038101906101d79190612697565b6105cd565b6040516101e991906126df565b60405180910390f35b6101fa6105df565b6040516102079190612793565b60405180910390f35b61022a600480360381019061022591906127b5565b61066d565b6040516102379190612624565b60405180910390f35b61025a600480360381019061025591906127e2565b610686565b6040516102679190612793565b60405180910390f35b61027861072b565b6040516102859190612624565b60405180910390f35b610296610746565b6040516102a39190612624565b60405180910390f35b6102c660048036038101906102c19190612a0c565b610762565b005b6102e260048036038101906102dd91906127b5565b61077c565b6040516102ef9190612624565b60405180910390f35b610312600480360381019061030d9190612ac7565b610795565b005b61032e60048036038101906103299190612c37565b610836565b005b61034a60048036038101906103459190612d56565b61086a565b6040516103579190612e8c565b60405180910390f35b61037a600480360381019061037591906127b5565b610983565b005b610384610afe565b6040516103919190612ebd565b60405180910390f35b6103a2610b26565b005b6103be60048036038101906103b99190612ed8565b610b3a565b005b6103da60048036038101906103d591906127b5565b610b54565b005b6103e4610bae565b6040516103f19190612f6a565b60405180910390f35b610414600480360381019061040f91906127e2565b610bd8565b60405161042191906126df565b60405180910390f35b610444600480360381019061043f9190612fb1565b610c02565b005b610460600480360381019061045b9190612ff1565b610c18565b005b61046a610c2e565b6040516104779190612624565b60405180910390f35b61049a60048036038101906104959190613031565b610c52565b005b6104b660048036038101906104b1919061307a565b610c74565b6040516104c391906126df565b60405180910390f35b6104e660048036038101906104e191906130ba565b610d08565b005b61050260048036038101906104fd91906127b5565b610da9565b005b60008073ffffffffffffffffffffffffffffffffffffffff168373ffffffffffffffffffffffffffffffffffffffff161415610575576040517f08c379a000000000000000000000000000000000000000000000000000000000815260040161056c906131c3565b60405180910390fd5b60008083815260200190815260200160002060008473ffffffffffffffffffffffffffffffffffffffff1673ffffffffffffffffffffffffffffffffffffffff16815260200190815260200160002054905092915050565b60006105d882610e2d565b9050919050565b600780546105ec90613212565b80601f016020809104026020016040519081016040528092919081815260200182805461061890613212565b80156106655780601f1061063a57610100808354040283529160200191610665565b820191906000526020600020905b81548152906001019060200180831161064857829003601f168201915b505050505081565b60008061067b836001610504565b905080915050919050565b60606005600083815260200190815260200160002080546106a690613212565b80601f01602080910402602001604051908101604052809291908181526020018280546106d290613212565b801561071f5780601f106106f45761010080835404028352916020019161071f565b820191906000526020600020905b81548152906001019060200180831161070257829003601f168201915b50505050509050919050565b60006006600080815260200190815260200160002054905090565b6000600660006001815260200190815260200160002054905090565b61076a610ea7565b61077684848484610f25565b50505050565b60008061078a836000610504565b905080915050919050565b61079d611152565b73ffffffffffffffffffffffffffffffffffffffff168573ffffffffffffffffffffffffffffffffffffffff1614806107e357506107e2856107dd611152565b610c74565b5b610822576040517f08c379a0000000000000000000000000000000000000000000000000000000008152600401610819906132b6565b60405180910390fd5b61082f858585858561115a565b5050505050565b61083e610ea7565b8060056000848152602001908152602001600020908051906020019061086592919061248a565b505050565b606081518351146108b0576040517f08c379a00000000000000000000000000000000000000000000000000000000081526004016108a790613348565b60405180910390fd5b6000835167ffffffffffffffff8111156108cd576108cc612814565b5b6040519080825280602002602001820160405280156108fb5781602001602082028036833780820191505090505b50905060005b8451811015610978576109488582815181106109205761091f613368565b5b602002602001015185838151811061093b5761093a613368565b5b6020026020010151610504565b82828151811061095b5761095a613368565b5b60200260200101818152505080610971906133c6565b9050610901565b508091505092915050565b61098b610ea7565b6109a881600060016040518060200160405280600081525061147c565b6006600080815260200190815260200160002060008154809291906109cc906133c6565b91905055508073ffffffffffffffffffffffffffffffffffffffff167f138b6f7e9a66d3592d5f5a9bb3a5a5842184c512e1773a7bfc5be6c4c07d24c060405160405180910390a27f0000000000000000000000000000000000000000000000000000000000000000610a40826000610504565b10610afb57610a718160007f000000000000000000000000000000000000000000000000000000000000000061162d565b610a8d816001806040518060200160405280600081525061147c565b60066000600181526020019081526020016000206000815480929190610ab2906133c6565b91905055508073ffffffffffffffffffffffffffffffffffffffff167f53f527e76f572bc1caf5075f8d0e507c5c01e5db1d4c751d48bddba84237bb1a60405160405180910390a25b50565b60007f911ec47000000000000000000000000000000000000000000000000000000000905090565b610b2e610ea7565b610b386000611874565b565b610b42610ea7565b610b4e8484848461147c565b50505050565b610b5c610ea7565b610b688160018061162d565b8073ffffffffffffffffffffffffffffffffffffffff167f3891df0d08e4f67f84cbc9675f170cf91da7ef75e5b988fd13d00f6e45dccc4f60405160405180910390a250565b6000600360009054906101000a900473ffffffffffffffffffffffffffffffffffffffff16905090565b60006004600083815260200190815260200160002060009054906101000a900460ff169050919050565b610c0a610ea7565b610c14828261193a565b5050565b610c2a610c23611152565b83836119a1565b5050565b7f000000000000000000000000000000000000000000000000000000000000000081565b610c5a610ea7565b8060079080519060200190610c7092919061248a565b5050565b6000600160008473ffffffffffffffffffffffffffffffffffffffff1673ffffffffffffffffffffffffffffffffffffffff16815260200190815260200160002060008373ffffffffffffffffffffffffffffffffffffffff1673ffffffffffffffffffffffffffffffffffffffff16815260200190815260200160002060009054906101000a900460ff16905092915050565b610d10611152565b73ffffffffffffffffffffffffffffffffffffffff168573ffffffffffffffffffffffffffffffffffffffff161480610d565750610d5585610d50611152565b610c74565b5b610d95576040517f08c379a0000000000000000000000000000000000000000000000000000000008152600401610d8c906132b6565b60405180910390fd5b610da28585858585611b0e565b5050505050565b610db1610ea7565b600073ffffffffffffffffffffffffffffffffffffffff168173ffffffffffffffffffffffffffffffffffffffff161415610e21576040517f08c379a0000000000000000000000000000000000000000000000000000000008152600401610e1890613481565b60405180910390fd5b610e2a81611874565b50565b60007f911ec470000000000000000000000000000000000000000000000000000000007bffffffffffffffffffffffffffffffffffffffffffffffffffffffff1916827bffffffffffffffffffffffffffffffffffffffffffffffffffffffff19161480610ea05750610e9f82611daa565b5b9050919050565b610eaf611152565b73ffffffffffffffffffffffffffffffffffffffff16610ecd610bae565b73ffffffffffffffffffffffffffffffffffffffff1614610f23576040517f08c379a0000000000000000000000000000000000000000000000000000000008152600401610f1a906134ed565b60405180910390fd5b565b600073ffffffffffffffffffffffffffffffffffffffff168473ffffffffffffffffffffffffffffffffffffffff161415610f95576040517f08c379a0000000000000000000000000000000000000000000000000000000008152600401610f8c9061357f565b60405180910390fd5b8151835114610fd9576040517f08c379a0000000000000000000000000000000000000000000000000000000008152600401610fd090613611565b60405180910390fd5b6000610fe3611152565b9050610ff481600087878787611e8c565b60005b84518110156110ad5783818151811061101357611012613368565b5b602002602001015160008087848151811061103157611030613368565b5b6020026020010151815260200190815260200160002060008873ffffffffffffffffffffffffffffffffffffffff1673ffffffffffffffffffffffffffffffffffffffff16815260200190815260200160002060008282546110939190613631565b9250508190555080806110a5906133c6565b915050610ff7565b508473ffffffffffffffffffffffffffffffffffffffff16600073ffffffffffffffffffffffffffffffffffffffff168273ffffffffffffffffffffffffffffffffffffffff167f4a39dc06d4c0dbc64b70af90fd698a233a518aa5d07e595d983b8c0526c8f7fb8787604051611125929190613687565b60405180910390a461113c81600087878787611ea2565b61114b81600087878787611eaa565b5050505050565b600033905090565b815183511461119e576040517f08c379a000000000000000000000000000000000000000000000000000000000815260040161119590613611565b60405180910390fd5b600073ffffffffffffffffffffffffffffffffffffffff168473ffffffffffffffffffffffffffffffffffffffff16141561120e576040517f08c379a000000000000000000000000000000000000000000000000000000000815260040161120590613730565b60405180910390fd5b6000611218611152565b9050611228818787878787611e8c565b60005b84518110156113d957600085828151811061124957611248613368565b5b60200260200101519050600085838151811061126857611267613368565b5b60200260200101519050600080600084815260200190815260200160002060008b73ffffffffffffffffffffffffffffffffffffffff1673ffffffffffffffffffffffffffffffffffffffff16815260200190815260200160002054905081811015611309576040517f08c379a0000000000000000000000000000000000000000000000000000000008152600401611300906137c2565b60405180910390fd5b81810360008085815260200190815260200160002060008c73ffffffffffffffffffffffffffffffffffffffff1673ffffffffffffffffffffffffffffffffffffffff168152602001908152602001600020819055508160008085815260200190815260200160002060008b73ffffffffffffffffffffffffffffffffffffffff1673ffffffffffffffffffffffffffffffffffffffff16815260200190815260200160002060008282546113be9190613631565b92505081905550505050806113d2906133c6565b905061122b565b508473ffffffffffffffffffffffffffffffffffffffff168673ffffffffffffffffffffffffffffffffffffffff168273ffffffffffffffffffffffffffffffffffffffff167f4a39dc06d4c0dbc64b70af90fd698a233a518aa5d07e595d983b8c0526c8f7fb8787604051611450929190613687565b60405180910390a4611466818787878787611ea2565b611474818787878787611eaa565b505050505050565b600073ffffffffffffffffffffffffffffffffffffffff168473ffffffffffffffffffffffffffffffffffffffff1614156114ec576040517f08c379a00000000000000000000000000000000000000000000000000000000081526004016114e39061357f565b60405180910390fd5b60006114f6611152565b9050600061150385612091565b9050600061151085612091565b905061152183600089858589611e8c565b8460008088815260200190815260200160002060008973ffffffffffffffffffffffffffffffffffffffff1673ffffffffffffffffffffffffffffffffffffffff16815260200190815260200160002060008282546115809190613631565b925050819055508673ffffffffffffffffffffffffffffffffffffffff16600073ffffffffffffffffffffffffffffffffffffffff168473ffffffffffffffffffffffffffffffffffffffff167fc3d58168c5ae7397731d063d5bbf3d657854427343f4c083240f7aacaa2d0f6289896040516115fe9291906137e2565b60405180910390a461161583600089858589611ea2565b6116248360008989898961210b565b50505050505050565b600073ffffffffffffffffffffffffffffffffffffffff168373ffffffffffffffffffffffffffffffffffffffff16141561169d576040517f08c379a00000000000000000000000000000000000000000000000000000000081526004016116949061387d565b60405180910390fd5b60006116a7611152565b905060006116b484612091565b905060006116c184612091565b90506116e183876000858560405180602001604052806000815250611e8c565b600080600087815260200190815260200160002060008873ffffffffffffffffffffffffffffffffffffffff1673ffffffffffffffffffffffffffffffffffffffff16815260200190815260200160002054905084811015611778576040517f08c379a000000000000000000000000000000000000000000000000000000000815260040161176f9061390f565b60405180910390fd5b84810360008088815260200190815260200160002060008973ffffffffffffffffffffffffffffffffffffffff1673ffffffffffffffffffffffffffffffffffffffff16815260200190815260200160002081905550600073ffffffffffffffffffffffffffffffffffffffff168773ffffffffffffffffffffffffffffffffffffffff168573ffffffffffffffffffffffffffffffffffffffff167fc3d58168c5ae7397731d063d5bbf3d657854427343f4c083240f7aacaa2d0f6289896040516118459291906137e2565b60405180910390a461186b84886000868660405180602001604052806000815250611ea2565b50505050505050565b6000600360009054906101000a900473ffffffffffffffffffffffffffffffffffffffff16905081600360006101000a81548173ffffffffffffffffffffffffffffffffffffffff021916908373ffffffffffffffffffffffffffffffffffffffff1602179055508173ffffffffffffffffffffffffffffffffffffffff168173ffffffffffffffffffffffffffffffffffffffff167f8be0079c531659141344cd1fd0a4f28419497f9722a3daafe3b4186f6b6457e060405160405180910390a35050565b806004600084815260200190815260200160002060006101000a81548160ff021916908315150217905550817fe0abe9435049152fa612635eac4022235b6f5c156ecf799bdac41b11b9fa22118260405161199591906126df565b60405180910390a25050565b8173ffffffffffffffffffffffffffffffffffffffff168373ffffffffffffffffffffffffffffffffffffffff161415611a10576040517f08c379a0000000000000000000000000000000000000000000000000000000008152600401611a07906139a1565b60405180910390fd5b80600160008573ffffffffffffffffffffffffffffffffffffffff1673ffffffffffffffffffffffffffffffffffffffff16815260200190815260200160002060008473ffffffffffffffffffffffffffffffffffffffff1673ffffffffffffffffffffffffffffffffffffffff16815260200190815260200160002060006101000a81548160ff0219169083151502179055508173ffffffffffffffffffffffffffffffffffffffff168373ffffffffffffffffffffffffffffffffffffffff167f17307eab39ab6107e8899845ad3d59bd9653f200f220920489ca2b5937696c3183604051611b0191906126df565b60405180910390a3505050565b600073ffffffffffffffffffffffffffffffffffffffff168473ffffffffffffffffffffffffffffffffffffffff161415611b7e576040517f08c379a0000000000000000000000000000000000000000000000000000000008152600401611b7590613730565b60405180910390fd5b6000611b88611152565b90506000611b9585612091565b90506000611ba285612091565b9050611bb2838989858589611e8c565b600080600088815260200190815260200160002060008a73ffffffffffffffffffffffffffffffffffffffff1673ffffffffffffffffffffffffffffffffffffffff16815260200190815260200160002054905085811015611c49576040517f08c379a0000000000000000000000000000000000000000000000000000000008152600401611c40906137c2565b60405180910390fd5b85810360008089815260200190815260200160002060008b73ffffffffffffffffffffffffffffffffffffffff1673ffffffffffffffffffffffffffffffffffffffff168152602001908152602001600020819055508560008089815260200190815260200160002060008a73ffffffffffffffffffffffffffffffffffffffff1673ffffffffffffffffffffffffffffffffffffffff1681526020019081526020016000206000828254611cfe9190613631565b925050819055508773ffffffffffffffffffffffffffffffffffffffff168973ffffffffffffffffffffffffffffffffffffffff168573ffffffffffffffffffffffffffffffffffffffff167fc3d58168c5ae7397731d063d5bbf3d657854427343f4c083240f7aacaa2d0f628a8a604051611d7b9291906137e2565b60405180910390a4611d91848a8a86868a611ea2565b611d9f848a8a8a8a8a61210b565b505050505050505050565b60007fd9b67a26000000000000000000000000000000000000000000000000000000007bffffffffffffffffffffffffffffffffffffffffffffffffffffffff1916827bffffffffffffffffffffffffffffffffffffffffffffffffffffffff19161480611e7557507f0e89341c000000000000000000000000000000000000000000000000000000007bffffffffffffffffffffffffffffffffffffffffffffffffffffffff1916827bffffffffffffffffffffffffffffffffffffffffffffffffffffffff1916145b80611e855750611e84826122f2565b5b9050919050565b611e9a86868686868661235c565b505050505050565b505050505050565b611ec98473ffffffffffffffffffffffffffffffffffffffff1661245f565b15612089578373ffffffffffffffffffffffffffffffffffffffff1663bc197c8187878686866040518663ffffffff1660e01b8152600401611f0f959493929190613a16565b602060405180830381600087803b158015611f2957600080fd5b505af1925050508015611f5a57506040513d601f19601f82011682018060405250810190611f579190613a93565b60015b61200057611f66613acd565b806308c379a01415611fc35750611f7b613aef565b80611f865750611fc5565b806040517f08c379a0000000000000000000000000000000000000000000000000000000008152600401611fba9190612793565b60405180910390fd5b505b6040517f08c379a0000000000000000000000000000000000000000000000000000000008152600401611ff790613bf7565b60405180910390fd5b63bc197c8160e01b7bffffffffffffffffffffffffffffffffffffffffffffffffffffffff1916817bffffffffffffffffffffffffffffffffffffffffffffffffffffffff191614612087576040517f08c379a000000000000000000000000000000000000000000000000000000000815260040161207e90613c89565b60405180910390fd5b505b505050505050565b60606000600167ffffffffffffffff8111156120b0576120af612814565b5b6040519080825280602002602001820160405280156120de5781602001602082028036833780820191505090505b50905082816000815181106120f6576120f5613368565b5b60200260200101818152505080915050919050565b61212a8473ffffffffffffffffffffffffffffffffffffffff1661245f565b156122ea578373ffffffffffffffffffffffffffffffffffffffff1663f23a6e6187878686866040518663ffffffff1660e01b8152600401612170959493929190613ca9565b602060405180830381600087803b15801561218a57600080fd5b505af19250505080156121bb57506040513d601f19601f820116820180604052508101906121b89190613a93565b60015b612261576121c7613acd565b806308c379a0141561222457506121dc613aef565b806121e75750612226565b806040517f08c379a000000000000000000000000000000000000000000000000000000000815260040161221b9190612793565b60405180910390fd5b505b6040517f08c379a000000000000000000000000000000000000000000000000000000000815260040161225890613bf7565b60405180910390fd5b63f23a6e6160e01b7bffffffffffffffffffffffffffffffffffffffffffffffffffffffff1916817bffffffffffffffffffffffffffffffffffffffffffffffffffffffff1916146122e8576040517f08c379a00000000000000000000000000000000000000000000000000000000081526004016122df90613c89565b60405180910390fd5b505b505050505050565b60007f01ffc9a7000000000000000000000000000000000000000000000000000000007bffffffffffffffffffffffffffffffffffffffffffffffffffffffff1916827bffffffffffffffffffffffffffffffffffffffffffffffffffffffff1916149050919050565b61236a868686868686612482565b60005b83518110156124565761239984828151811061238c5761238b613368565b5b6020026020010151610bd8565b1561244557600073ffffffffffffffffffffffffffffffffffffffff168673ffffffffffffffffffffffffffffffffffffffff1614806124055750600073ffffffffffffffffffffffffffffffffffffffff168573ffffffffffffffffffffffffffffffffffffffff16145b612444576040517f08c379a000000000000000000000000000000000000000000000000000000000815260040161243b90613d75565b60405180910390fd5b5b8061244f906133c6565b905061236d565b50505050505050565b6000808273ffffffffffffffffffffffffffffffffffffffff163b119050919050565b505050505050565b82805461249690613212565b90600052602060002090601f0160209004810192826124b857600085556124ff565b82601f106124d157805160ff19168380011785556124ff565b828001600101855582156124ff579182015b828111156124fe5782518255916020019190600101906124e3565b5b50905061250c9190612510565b5090565b5b80821115612529576000816000905550600101612511565b5090565b6000604051905090565b600080fd5b600080fd5b600073ffffffffffffffffffffffffffffffffffffffff82169050919050565b600061256c82612541565b9050919050565b61257c81612561565b811461258757600080fd5b50565b60008135905061259981612573565b92915050565b6000819050919050565b6125b28161259f565b81146125bd57600080fd5b50565b6000813590506125cf816125a9565b92915050565b600080604083850312156125ec576125eb612537565b5b60006125fa8582860161258a565b925050602061260b858286016125c0565b9150509250929050565b61261e8161259f565b82525050565b60006020820190506126396000830184612615565b92915050565b60007fffffffff0000000000000000000000000000000000000000000000000000000082169050919050565b6126748161263f565b811461267f57600080fd5b50565b6000813590506126918161266b565b92915050565b6000602082840312156126ad576126ac612537565b5b60006126bb84828501612682565b91505092915050565b60008115159050919050565b6126d9816126c4565b82525050565b60006020820190506126f460008301846126d0565b92915050565b600081519050919050565b600082825260208201905092915050565b60005b83811015612734578082015181840152602081019050612719565b83811115612743576000848401525b50505050565b6000601f19601f8301169050919050565b6000612765826126fa565b61276f8185612705565b935061277f818560208601612716565b61278881612749565b840191505092915050565b600060208201905081810360008301526127ad818461275a565b905092915050565b6000602082840312156127cb576127ca612537565b5b60006127d98482850161258a565b91505092915050565b6000602082840312156127f8576127f7612537565b5b6000612806848285016125c0565b91505092915050565b600080fd5b7f4e487b7100000000000000000000000000000000000000000000000000000000600052604160045260246000fd5b61284c82612749565b810181811067ffffffffffffffff8211171561286b5761286a612814565b5b80604052505050565b600061287e61252d565b905061288a8282612843565b919050565b600067ffffffffffffffff8211156128aa576128a9612814565b5b602082029050602081019050919050565b600080fd5b60006128d36128ce8461288f565b612874565b905080838252602082019050602084028301858111156128f6576128f56128bb565b5b835b8181101561291f578061290b88826125c0565b8452602084019350506020810190506128f8565b5050509392505050565b600082601f83011261293e5761293d61280f565b5b813561294e8482602086016128c0565b91505092915050565b600080fd5b600067ffffffffffffffff82111561297757612976612814565b5b61298082612749565b9050602081019050919050565b82818337600083830152505050565b60006129af6129aa8461295c565b612874565b9050828152602081018484840111156129cb576129ca612957565b5b6129d684828561298d565b509392505050565b600082601f8301126129f3576129f261280f565b5b8135612a0384826020860161299c565b91505092915050565b60008060008060808587031215612a2657612a25612537565b5b6000612a348782880161258a565b945050602085013567ffffffffffffffff811115612a5557612a5461253c565b5b612a6187828801612929565b935050604085013567ffffffffffffffff811115612a8257612a8161253c565b5b612a8e87828801612929565b925050606085013567ffffffffffffffff811115612aaf57612aae61253c565b5b612abb878288016129de565b91505092959194509250565b600080600080600060a08688031215612ae357612ae2612537565b5b6000612af18882890161258a565b9550506020612b028882890161258a565b945050604086013567ffffffffffffffff811115612b2357612b2261253c565b5b612b2f88828901612929565b935050606086013567ffffffffffffffff811115612b5057612b4f61253c565b5b612b5c88828901612929565b925050608086013567ffffffffffffffff811115612b7d57612b7c61253c565b5b612b89888289016129de565b9150509295509295909350565b600067ffffffffffffffff821115612bb157612bb0612814565b5b612bba82612749565b9050602081019050919050565b6000612bda612bd584612b96565b612874565b905082815260208101848484011115612bf657612bf5612957565b5b612c0184828561298d565b509392505050565b600082601f830112612c1e57612c1d61280f565b5b8135612c2e848260208601612bc7565b91505092915050565b60008060408385031215612c4e57612c4d612537565b5b6000612c5c858286016125c0565b925050602083013567ffffffffffffffff811115612c7d57612c7c61253c565b5b612c8985828601612c09565b9150509250929050565b600067ffffffffffffffff821115612cae57612cad612814565b5b602082029050602081019050919050565b6000612cd2612ccd84612c93565b612874565b90508083825260208201905060208402830185811115612cf557612cf46128bb565b5b835b81811015612d1e5780612d0a888261258a565b845260208401935050602081019050612cf7565b5050509392505050565b600082601f830112612d3d57612d3c61280f565b5b8135612d4d848260208601612cbf565b91505092915050565b60008060408385031215612d6d57612d6c612537565b5b600083013567ffffffffffffffff811115612d8b57612d8a61253c565b5b612d9785828601612d28565b925050602083013567ffffffffffffffff811115612db857612db761253c565b5b612dc485828601612929565b9150509250929050565b600081519050919050565b600082825260208201905092915050565b6000819050602082019050919050565b612e038161259f565b82525050565b6000612e158383612dfa565b60208301905092915050565b6000602082019050919050565b6000612e3982612dce565b612e438185612dd9565b9350612e4e83612dea565b8060005b83811015612e7f578151612e668882612e09565b9750612e7183612e21565b925050600181019050612e52565b5085935050505092915050565b60006020820190508181036000830152612ea68184612e2e565b905092915050565b612eb78161263f565b82525050565b6000602082019050612ed26000830184612eae565b92915050565b60008060008060808587031215612ef257612ef1612537565b5b6000612f008782880161258a565b9450506020612f11878288016125c0565b9350506040612f22878288016125c0565b925050606085013567ffffffffffffffff811115612f4357612f4261253c565b5b612f4f878288016129de565b91505092959194509250565b612f6481612561565b82525050565b6000602082019050612f7f6000830184612f5b565b92915050565b612f8e816126c4565b8114612f9957600080fd5b50565b600081359050612fab81612f85565b92915050565b60008060408385031215612fc857612fc7612537565b5b6000612fd6858286016125c0565b9250506020612fe785828601612f9c565b9150509250929050565b6000806040838503121561300857613007612537565b5b60006130168582860161258a565b925050602061302785828601612f9c565b9150509250929050565b60006020828403121561304757613046612537565b5b600082013567ffffffffffffffff8111156130655761306461253c565b5b61307184828501612c09565b91505092915050565b6000806040838503121561309157613090612537565b5b600061309f8582860161258a565b92505060206130b08582860161258a565b9150509250929050565b600080600080600060a086880312156130d6576130d5612537565b5b60006130e48882890161258a565b95505060206130f58882890161258a565b9450506040613106888289016125c0565b9350506060613117888289016125c0565b925050608086013567ffffffffffffffff8111156131385761313761253c565b5b613144888289016129de565b9150509295509295909350565b7f455243313135353a2061646472657373207a65726f206973206e6f742061207660008201527f616c6964206f776e657200000000000000000000000000000000000000000000602082015250565b60006131ad602a83612705565b91506131b882613151565b604082019050919050565b600060208201905081810360008301526131dc816131a0565b9050919050565b7f4e487b7100000000000000000000000000000000000000000000000000000000600052602260045260246000fd5b6000600282049050600182168061322a57607f821691505b6020821081141561323e5761323d6131e3565b5b50919050565b7f455243313135353a2063616c6c6572206973206e6f7420746f6b656e206f776e60008201527f6572206f7220617070726f766564000000000000000000000000000000000000602082015250565b60006132a0602e83612705565b91506132ab82613244565b604082019050919050565b600060208201905081810360008301526132cf81613293565b9050919050565b7f455243313135353a206163636f756e747320616e6420696473206c656e67746860008201527f206d69736d617463680000000000000000000000000000000000000000000000602082015250565b6000613332602983612705565b915061333d826132d6565b604082019050919050565b6000602082019050818103600083015261336181613325565b9050919050565b7f4e487b7100000000000000000000000000000000000000000000000000000000600052603260045260246000fd5b7f4e487b7100000000000000000000000000000000000000000000000000000000600052601160045260246000fd5b60006133d18261259f565b91507fffffffffffffffffffffffffffffffffffffffffffffffffffffffffffffffff82141561340457613403613397565b5b600182019050919050565b7f4f776e61626c653a206e6577206f776e657220697320746865207a65726f206160008201527f6464726573730000000000000000000000000000000000000000000000000000602082015250565b600061346b602683612705565b91506134768261340f565b604082019050919050565b6000602082019050818103600083015261349a8161345e565b9050919050565b7f4f776e61626c653a2063616c6c6572206973206e6f7420746865206f776e6572600082015250565b60006134d7602083612705565b91506134e2826134a1565b602082019050919050565b60006020820190508181036000830152613506816134ca565b9050919050565b7f455243313135353a206d696e7420746f20746865207a65726f2061646472657360008201527f7300000000000000000000000000000000000000000000000000000000000000602082015250565b6000613569602183612705565b91506135748261350d565b604082019050919050565b600060208201905081810360008301526135988161355c565b9050919050565b7f455243313135353a2069647320616e6420616d6f756e7473206c656e6774682060008201527f6d69736d61746368000000000000000000000000000000000000000000000000602082015250565b60006135fb602883612705565b91506136068261359f565b604082019050919050565b6000602082019050818103600083015261362a816135ee565b9050919050565b600061363c8261259f565b91506136478361259f565b9250827fffffffffffffffffffffffffffffffffffffffffffffffffffffffffffffffff0382111561367c5761367b613397565b5b828201905092915050565b600060408201905081810360008301526136a18185612e2e565b905081810360208301526136b58184612e2e565b90509392505050565b7f455243313135353a207472616e7366657220746f20746865207a65726f20616460008201527f6472657373000000000000000000000000000000000000000000000000000000602082015250565b600061371a602583612705565b9150613725826136be565b604082019050919050565b600060208201905081810360008301526137498161370d565b9050919050565b7f455243313135353a20696e73756666696369656e742062616c616e636520666f60008201527f72207472616e7366657200000000000000000000000000000000000000000000602082015250565b60006137ac602a83612705565b91506137b782613750565b604082019050919050565b600060208201905081810360008301526137db8161379f565b9050919050565b60006040820190506137f76000830185612615565b6138046020830184612615565b9392505050565b7f455243313135353a206275726e2066726f6d20746865207a65726f206164647260008201527f6573730000000000000000000000000000000000000000000000000000000000602082015250565b6000613867602383612705565b91506138728261380b565b604082019050919050565b600060208201905081810360008301526138968161385a565b9050919050565b7f455243313135353a206275726e20616d6f756e7420657863656564732062616c60008201527f616e636500000000000000000000000000000000000000000000000000000000602082015250565b60006138f9602483612705565b91506139048261389d565b604082019050919050565b60006020820190508181036000830152613928816138ec565b9050919050565b7f455243313135353a2073657474696e6720617070726f76616c2073746174757360008201527f20666f722073656c660000000000000000000000000000000000000000000000602082015250565b600061398b602983612705565b91506139968261392f565b604082019050919050565b600060208201905081810360008301526139ba8161397e565b9050919050565b600081519050919050565b600082825260208201905092915050565b60006139e8826139c1565b6139f281856139cc565b9350613a02818560208601612716565b613a0b81612749565b840191505092915050565b600060a082019050613a2b6000830188612f5b565b613a386020830187612f5b565b8181036040830152613a4a8186612e2e565b90508181036060830152613a5e8185612e2e565b90508181036080830152613a7281846139dd565b90509695505050505050565b600081519050613a8d8161266b565b92915050565b600060208284031215613aa957613aa8612537565b5b6000613ab784828501613a7e565b91505092915050565b60008160e01c9050919050565b600060033d1115613aec5760046000803e613ae9600051613ac0565b90505b90565b600060443d1015613aff57613b82565b613b0761252d565b60043d036004823e80513d602482011167ffffffffffffffff82111715613b2f575050613b82565b808201805167ffffffffffffffff811115613b4d5750505050613b82565b80602083010160043d038501811115613b6a575050505050613b82565b613b7982602001850186612843565b82955050505050505b90565b7f455243313135353a207472616e7366657220746f206e6f6e2d4552433131353560008201527f526563656976657220696d706c656d656e746572000000000000000000000000602082015250565b6000613be1603483612705565b9150613bec82613b85565b604082019050919050565b60006020820190508181036000830152613c1081613bd4565b9050919050565b7f455243313135353a204552433131353552656365697665722072656a6563746560008201527f6420746f6b656e73000000000000000000000000000000000000000000000000602082015250565b6000613c73602883612705565b9150613c7e82613c17565b604082019050919050565b60006020820190508181036000830152613ca281613c66565b9050919050565b600060a082019050613cbe6000830188612f5b565b613ccb6020830187612f5b565b613cd86040830186612615565b613ce56060830185612615565b8181036080830152613cf781846139dd565b90509695505050505050565b7f455243353633333a20536f756c626f756e642c204e6f6e2d5472616e7366657260008201527f61626c6500000000000000000000000000000000000000000000000000000000602082015250565b6000613d5f602483612705565b9150613d6a82613d03565b604082019050919050565b60006020820190508181036000830152613d8e81613d52565b905091905056fea26469706673582212200098f7998f1dd40f1b2a22249e22f7fd521c8a77debbbe6efc9ab2179480ed2a64736f6c63430008090033",
  "linkReferences": {},
  "deployedLinkReferences": {}
}